:020000040000FA
:060000000A128A110C280F
:10000800FE00030EF1000A08F2000A128A11D32931
:100018000A128A110F28F90183120313B201B301DE
:10002800B401B501B601B701B801B901BA0183013C
:100038000A128A117A290030F7000030F6000030E1
:10004800F5000030F400831203132308220421046E
:1000580020040319302831287E28F801F80A41289D
:100068000130F3000310A00DA10DA20DA30DF30B99
:1000780036280130F3007308F807A31F44284528E1
:1000880034280130F3000310F40DF50DF60DF70DCB
:10009800F30B472823082702031D5C2822082602A1
:1000A800031D5C2821082502031D5C282008240262
:1000B800031C5F2860286F282008A4022108031C5D
:1000C800210FA5022208031C220FA6022308031CE5
:1000D800230FA702741401300310A30CA20CA10C67
:1000E800A00CFF3E031D70280130F802031D7D2877
:1000F8007E2845287708A3007608A2007508A10085
:100108007408A00008006B30F5000030F60080305D
:10011800F7000030F8000A128A1154210A128A11D5
:10012800023083120313A2000430A100B930A000EA
:10013800A00B9C28A10B9C28A20B9C28A3286B3001
:10014800F5000030F6000030F700F8000A128A11B6
:1001580054210A128A11023083120313A2000430B8
:10016800A100B930A000A00BB728A10BB728A20B9B
:10017800B728BE281A30F5000030F6000130F70025
:100188000030F8000A128A1154210A128A111A3012
:1001980083120313A100F730A000A00BD128A10BF4
:1001A800D128D6281B30F5000030F6000030F700C3
:1001B800F8000A128A1154210A128A1108008316BB
:1001C80003139101831203132808AC002908AD001A
:1001D8002A08AE002B08AF0002300310AC0DAD0D9D
:1001E800AE0DAF0DFF3E031DF1282F08A3002E080A
:1001F800A2002D08A1002C08A0000030A7007A302A
:10020800A6001230A5000030A4000A128A111F208F
:100218000A128A11831203132008FF3E8316031360
:10022800930094018715071628308312031394004E
:1002380008008316031788018901831603138501B3
:100248008501831203138501831603138601831224
:10025800031386018316031387018312031387018F
:10026800831603138801831203138801831603136B
:100278008901831203138901BA010030AB000130F0
:10028800AA008630A900A030A8000A128A11E3202B
:100298000A128A118B170B17831203138C1208008A
:1002A8000A128A1125220A128A11D030F30000306E
:1002B800F4000A128A1112220A128A117608F4002E
:1002C8007508F3000A128A1112220A128A11780894
:1002D800F4007708F3000A128A1112220A128A110E
:1002E8000A128A111C220A128A1108000A128A119B
:1002F8001D210A128A110A128A1187200A128A11EC
:100308000A128A11B8210A128A11831203130808E3
:10031800B000B1013008F4003108F5000A128A1162
:100328009B210A128A1189290A128A110C28AD29DF
:10033800740884008317751C831300080A128A1135
:1003480008220A128A110130F4070318F50A00304E
:10035800F507740884008317751C83130008031DB0
:10036800B629B7299C290800831603139816181272
:100378008312031398178316031307131813831292
:1003880003131816831603138C16831203131813FA
:100398008316031387170330990018150800831272
:1003A80003138C1ED829D929E6290A128A11ED21AE
:1003B8000A128A11F0007008F900831203138C12D4
:1003C8007908880072088A00710E8300FE0E7E0E7E
:1003D800090083120313981CF229F329F52918122E
:1003E80018168C1EF829F929F5291A080800831609
:1003F80003131419002A012AFB2911081F39031DA8
:10040800062A072AFB290800F300831203130C1E8F
:100418000E2A0F2A092A7308990008000A128A115D
:10042800FB210A128A117308831203139300080030
:100438000A128A11FB210A128A1183160313111555
:1004480008000A128A11FB210A128A118316031363
:040458001114080073
:04400E00F42FFF3F4D
:00000001FF
