:020000040000FA
:060000000A128A110C280F
:10000800FE00030EF1000A08F2000A128A11C82C39
:100018000A128A110F2883120313BB01BC01BD0108
:10002800BE01BF0183010A128A111A280A128A1115
:100038008F230A128A110A128A11CA220A128A11F5
:100048000A128A1188240A128A11F23083120313C1
:100058003B06031D30283128352807119A01BB01BA
:100068004D28FE303B06031D3A283B283D2807153E
:100078003228F7303B06031D4228432845288710BD
:100088003228FB303B06031D4A284B284D2887148D
:10009800322800300A128A11FB240A128A1102300F
:1000A80083120313BA000430B900B930B800B80B92
:1000B8005B28B90B5B28BA0B5B2862280A128A11E5
:1000C800A8240A128A1183120313B8003808BD0045
:1000D8003D08880061300A128A11FB240A128A112D
:1000E800023083120313BA000430B900B930B800E3
:1000F800B80B7C28B90B7C28BA0B7C288328831280
:1001080003133D080A128A11FB240A128A110230CD
:1001180083120313BA000430B900B930B800B80B21
:100128009328B90B9328BA0B93289A280A128A1194
:10013800FD230A128A11831203132908B000280824
:10014800AF002708AE002608AD000A128A11E62182
:100158000A128A11831203132D08B8003808BF0049
:1001680062300A128A11FB240A128A1102308312A1
:100178000313BA000430B900B930B800B80BC2286C
:10018800B90BC228BA0BC228C928831203133F0827
:100198000A128A11FB240A128A11023083120313ED
:1001A800BA000430B900B930B800B80BD928B90B77
:1001B800D928BA0BD928E0280A128A11C6230A12AC
:1001C8008A11831203132908B0002808AF002708F2
:1001D800AE002608AD000A128A11E6210A128A1119
:1001E800831203132D08B8003808BE0063300A12C2
:1001F8008A11FB240A128A11023083120313BA00EF
:100208000430B900B930B800B80B0829B90B08296F
:10021800BA0B08290F29831203133E080A128A1100
:10022800FB240A128A11023083120313BA00043025
:10023800B900B930B800B80B1F29B90B1F29BA0B80
:100248001F29262929280A128A110C288312031328
:10025800A00020080319312932294629F61F35291B
:10026800362946297309A2007409A3007509A40058
:100278007609A500A20A0319A30A0319A40A0319F7
:10028800A50A4E297608A5007508A4007408A300DD
:100298007308A2007608750474047304031D5529B5
:1002A80056295F290030F6000030F5000030F400D0
:1002B8000030F300E5299630F7007708A10071298E
:1002C8000130F7007708A10701300310A50CA40C32
:1002D800A30CA20CFF3E031D6929FE302505031D52
:1002E80076297729642993290130F7007708A1072F
:1002F8000130A207003003180130A30700300318AB
:100308000130A407003003180130A507013003109D
:10031800A50CA40CA30CA20CFF3E031D8B29FF30D7
:100328002505031D982999297829A5290130A102B5
:100338000130F7000310A20DA30DA40DA50DF70BB6
:100348009E29A41BA829A929AF2902302102031834
:10035800AE29AF299A292118B229B329BB29FF3020
:10036800A205FF30A3057F30A405FF30A5050310C3
:10037800A10C2108F700F801F901FA01183003105F
:10038800F70DF80DF90DFA0DFF3E031DC329770887
:10039800A2047808A3047908A4047A08A50420080C
:1003A8000319D729D829DD29F61FDB29DC29DD29FE
:1003B800A5172508F6002408F5002308F4002208EC
:1003C800F30008000310831203132F0D300DB10042
:1003D8003108B7003708031DF229F329FC2900303A
:1003E800B0000030AF000030AE000030AD00612A30
:1003F8002D08B1002E08B2002F08B3003008B40051
:100408001F300310B40CB30CB20CB10CFF3E031D2B
:10041800052A3108B5003508B600AF17FF30AD051D
:10042800FF30AE05FF30AF050030B0059630B7029B
:10043800B71F1F2A202A3A2A3708803A973E0318FE
:10044800262A272A282AF32901300310B00CAF0CDA
:10045800AE0CAD0CFF3E031D292A0130B100310856
:10046800B707031D382A392A282A512A203037028B
:10047800031C3F2A402A4C2AF3290130B1000310FB
:10048800AD0DAE0DAF0DB00DB10B432A0130B70263
:100498003708031D502A512A412A36080319552ABC
:1004A800562A612AAD09AE09AF09B009AD0A031988
:1004B800AE0A0319AF0A0319B00A08000030831204
:1004C8000313A4000030A3000030A2000030A100F4
:1004D80076087504740473040319732A742AC12AEC
:1004E800A501A50A842A0130A0000310F30DF40D1C
:1004F800F50DF60DA00B792A0130A0002008A507FC
:10050800F61F872A882A772A0130A0000310A10D38
:10051800A20DA30DA40DA00B8A2A76087A02031D4A
:100528009F2A75087902031D9F2A74087802031D03
:100538009F2A73087702031CA22AA32AB22A7308E7
:10054800F7027408031C740FF8027508031C750F72
:10055800F9027608031C760FFA0221140130031001
:10056800F60CF50CF40CF30CFF3E031DB32A013016
:10057800A502031DC02AC12A882A2408F6002308D8
:10058800F5002208F4002108F30008006B30F5009C
:100598000030F6008030F7000030F8000A128A11A7
:1005A80062240A128A118230FA00DD30F900F90B50
:1005B800DB2AFA0BDB2AE02A6B30F5000030F60064
:1005C8000030F700F8000A128A1162240A128A1110
:1005D8008230FA00DD30F900F90BF02AFA0BF02A24
:1005E800F52A1A30F5000030F6000130F700003027
:1005F800F8000A128A1162240A128A110D30FA00D0
:10060800FB30F900F90B062BFA0B062B0B2B1B30D2
:10061800F5000030F6000030F700F8000A128A11E1
:1006280062240A128A1108000A128A1118250A126D
:100638008A11D030F3000030F4000A128A1105251F
:100648000A128A117A08F4007908F3000A128A114A
:1006580005250A128A110A128A1118250A128A1106
:10066800D130F3000030F4000A128A1105250A126D
:100678008A110030F300F4000A128A1134240A1295
:100688008A11740883120313A1007308A0000A12C8
:100698008A110F250A128A11831203132108FA00FE
:1006A8002008F9000800831603139101831203132D
:1006B8002608AA002708AB002808AC002908AD00C6
:1006C80002300310AA0DAB0DAC0DAD0DFF3E031D9E
:1006D800652B2D08F6002C08F5002B08F4002A08D5
:1006E800F3000030FA003D30F9000930F80000301E
:1006F800F7000A128A1162220A128A117308FF3E51
:100708008316031393009401871507162830831264
:1007180003139400080083160317880189018316C0
:1007280003138501850183120313850183160313BF
:10073800860183120313860183160313870183122C
:100748000313870183160313880183120313880197
:10075800831603138901831203138901BC01003036
:10076800A9000130A8008630A700A030A6000A1210
:100778008A1157230A128A118B170B178312031336
:100788008C1208003F30F9000030FA000A128A1172
:1007980018230A128A11790883120313AA002A0857
:1007A800AB004030F9000030FA000A128A11182311
:1007B8000A128A11790883120313AA002A08AC00C6
:1007C8002B08F3008039031DFF30F400F500F60014
:1007D80001300A128A112A210A128A117608831214
:1007E8000313A9007508A8007408A7007308A600D9
:1007F80008003D30F9000030FA000A128A11182367
:100808000A128A11790883120313AA002A08AB0076
:100818003E30F9000030FA000A128A1118230A1231
:100828008A11790883120313AA002A08AC002B083E
:10083800F3008039031DFF30F400F500F6000130A5
:100848000A128A112A210A128A11760883120313BE
:10085800A9007508A8007408A7007308A600080076
:100868000A128A11EE240A128A11831603139115AB
:100878000A128A11EE240A128A118312031313082A
:10088800F500F6017508F7007608F8000A128A11D3
:10089800EE240A128A1173037404031D542C552C78
:1008A800592C8316031391125C2C8316031391168B
:1008B80011167808F4007708F30008000A128A1164
:1008C80018250A128A11D030F3000030F4000A12F9
:1008D8008A1105250A128A117608F4007508F300B2
:1008E8000A128A1105250A128A117808F400770875
:1008F800F3000A128A1105250A128A110A128A11AE
:100908000F250A128A110800831603139816181265
:1009180083120313981783160313071318130C1263
:10092800831203131816831603138C1683120313EA
:100938001813831603138717333099009A01181573
:1009480083160317871108003B30F9000030FA00BE
:100958000A128A1118230A128A11790883120313BA
:10096800A2002208A3003C30F9000030FA000A1265
:100978008A1118230A128A11790883120313A20014
:100988002208A40023080800831203138C1ECD2C10
:10099800CE2CD92C0A128A11E0240A128A11F000EE
:1009A800700883120313BB008C1272088A00710E40
:1009B8008300FE0E7E0E090083120313981CE52C9B
:1009C800E62CE82C181218168C1EEB2CEC2CE82CB4
:1009D8001A080800831603131419F32CF42CEE2CB0
:1009E80011081F39031DF92CFA2CEE2C0800F3000E
:1009F800831203130C1E012D022DFC2C7308990081
:100A080008000A128A11EE240A128A117308831246
:100A18000313930008000A128A11EE240A128A119D
:100A280083160313111508000A128A11EE240A12FC
:0A0A38008A1183160313111408003D
:04400E00F42FFF3F4D
:00000001FF
