:020000040000FA
:060000000A128A11F12F23
:100A04000A128A1128250A128A1183160313111453
:100A140008000A128A1128250A128A118316031360
:100A2400111508000A128A1128250A128A11700861
:100A34008312031393000800F000831203130C1EA7
:100A4400242D252D1F2D70089900080083160313EB
:100A540014192D2D2E2D282D11081F39031D332D6A
:100A6400342D282D080083160313981618128312A8
:100A7400031398178316031307131813831203130E
:100A84001816831603138C16831203131813831674
:100A9400031387170330990018150800622D710895
:100AA40084008317721C831300080A128A111E25FE
:100AB4000A128A110130F1070318F20A0030F20712
:100AC400710884008317721C83130008031D6B2DA7
:100AD4006C2D512D08000A128A1102250A128A115E
:100AE400D030F0000030F1000A128A1114250A12E5
:100AF4008A117308F1007208F0000A128A11142591
:100B04000A128A117508F1007408F0000A128A1199
:100B140014250A128A110A128A110B250A128A1143
:100B240008000A128A11E8250A128A110A128A1187
:100B3400CC260A128A110A128A1135250A128A1140
:100B44000A128A118D260A128A118312031388004D
:100B54000808A900AA012908F1002A08F2000A12CB
:100B64008A1150250A128A11A22D0A128A1100280C
:100B74000A128A1128250A128A1183160313911561
:100B84000A128A1128250A128A11831203131308E0
:100B9400F200F3017208F4007308F5000A128A11D6
:100BA40028250A128A1170037104031DDA2DDB2D26
:100BB400DF2D831603139112E22D8316031391166E
:100BC40011167508F1007408F00008008316031765
:100BD4008801890183160313850185018312031398
:100BE400850183160313860183120313860183167A
:100BF40003138701831203138701831603138801E8
:100C040083120313880183160313890183120313C8
:100C14008901B3010030A3000130A2008630A10095
:100C2400A030A0000A128A111A260A128A1108009A
:100C3400831603139101831203132008A4002108CF
:100C4400A5002208A6002308A70002300310A40D63
:100C5400A50DA60DA70DFF3E031D282E2708F300A2
:100C64002608F2002508F1002408F0000030F700FF
:100C74007A30F6001230F5000030F4000A128A11BE
:100C840022270A128A117008FF3E83160313930069
:100C94009401871507162830831203139400080063
:100CA4000A128A1102250A128A11D030F00000308B
:100CB400F1000A128A1114250A128A117708F10028
:100CC4007608F0000A128A1114250A128A110A12EF
:100CD4008A1102250A128A11D130F0000030F10085
:100CE4000A128A1114250A128A110030F000F10048
:100CF4000A128A11BA250A128A117108F9007008B9
:100D0400F8000A128A110B250A128A117908F700D1
:100D14007808F60008000230FA000030FB00433087
:100D2400F6000030F7000A128A1152260A128A11BC
:100D34007708FD007608FC000A128A1188270A1237
:100D44008A117A0883120313A5002508A70002302C
:100D5400FA000030FB004430F6000030F7000A12BD
:100D64008A1152260A128A117708FD007608FC00BF
:100D74000A128A1188270A128A117A088312031325
:100D8400A5002508A80027082807A5002508A6000F
:100D9400260808006B30F2000030F3008030F400C5
:100DA4000030F5000A128A116D250A128A110230E8
:100DB400F8000430F700BA30F600F60BDF2EF70B1C
:100DC400DF2EF80BDF2E00006B30F2000030F30052
:100DD4000030F400F5000A128A116D250A128A11F6
:100DE4000230F8000430F700BA30F600F60BF82EA3
:100DF400F70BF82EF80BF82E00001A30F200003032
:100E0400F3000130F4000030F5000A128A116D2558
:100E14000A128A111A30F700F830F600F60B102F78
:100E2400F70B102F00001B30F2000030F3000030ED
:100E3400F400F5000A128A116D250A128A110800BD
:100E44000030FC000030FB000030FA000030F900F4
:100E540073087204710470040319312F322F7F2F29
:100E6400FD01FD0A422F0130F8000310F00DF10DD1
:100E7400F20DF30DF80B372F0130F8007808FD0759
:100E8400F31F452F462F352F0130F8000310F90DBD
:100E9400FA0DFB0DFC0DF80B482F73087702031DA8
:100EA4005D2F72087602031D5D2F71087502031D04
:100EB4005D2F70087402031C602F612F702F70085F
:100EC400F4027108031C710FF5027208031C720FFF
:100ED400F6027308031C730FF70279140130031030
:100EE400F30CF20CF10CF00CFF3E031D712F0130DA
:100EF400FD02031D7E2F7F2F462F7C08F3007B0805
:100F0400F2007A08F1007908F00008008312031354
:100F1400A201FB1F8E2F8F2F962FFA09FB09FA0AC5
:100F24000319FB0AA201A20AFD1F992F9A2FA32FCE
:100F3400FC09FD09FC0A0319FD0A0130A000200880
:100F4400A206A301A4017A087B040319AA2FAB2FDC
:100F5400E22FA101A10AB92F01300310FA0DFB0DF4
:100F6400FF3E031DAF2F0130A0002008A107FB1F87
:100F7400BC2FBD2FAE2F01300310A30DA40DFF3ED7
:100F8400031DBE2F7B087D02031DCA2F7A087C0235
:100F9400031CCD2FCE2FD52F7A08FC027B08031C0F
:100FA400FD03FD02231401300310FB0CFA0CFF3E79
:100FB400031DD62F0130A102031DE12FE22FBD2F07
:100FC40022080319E62FE72FEC2FA309A409A30A8B
:100FD4000319A40A2408FB002308FA00080083125A
:100FE4000313AB01AC01AD01AE01AF01B001B1011E
:0C0FF400B201B30183010A128A11932D8F
:04400E00F42FFF3F4D
:00000001FF
